{
  "_format": "hh-sol-artifact-1",
  "contractName": "WavePortal",
  "sourceName": "contracts/WavePortal.sol",
  "abi": [
    {
      "inputs": [],
      "stateMutability": "nonpayable",
      "type": "constructor"
    },
    {
      "anonymous": false,
      "inputs": [
        {
          "indexed": false,
          "internalType": "address",
          "name": "sender",
          "type": "address"
        },
        {
          "indexed": true,
          "internalType": "uint256",
          "name": "tip",
          "type": "uint256"
        }
      ],
      "name": "Waved",
      "type": "event"
    },
    {
      "inputs": [],
      "name": "getMyWaves",
      "outputs": [
        {
          "internalType": "uint256",
          "name": "",
          "type": "uint256"
        }
      ],
      "stateMutability": "view",
      "type": "function"
    },
    {
      "inputs": [],
      "name": "getTotalWaves",
      "outputs": [
        {
          "internalType": "uint256",
          "name": "",
          "type": "uint256"
        }
      ],
      "stateMutability": "view",
      "type": "function"
    },
    {
      "inputs": [
        {
          "internalType": "address",
          "name": "_address",
          "type": "address"
        }
      ],
      "name": "getWavesOf",
      "outputs": [
        {
          "internalType": "uint256",
          "name": "",
          "type": "uint256"
        }
      ],
      "stateMutability": "view",
      "type": "function"
    },
    {
      "inputs": [],
      "name": "wave",
      "outputs": [],
      "stateMutability": "payable",
      "type": "function"
    }
  ],
  "bytecode": "0x608060405234801561001057600080fd5b506100596040518060400160405280601681526020017f57617665506f7274616c20636f6e7374727563746f720000000000000000000081525061005e60201b61030f1760201c565b6101e1565b6100fa81604051602401610072919061015f565b6040516020818303038152906040527f41304fac000000000000000000000000000000000000000000000000000000007bffffffffffffffffffffffffffffffffffffffffffffffffffffffff19166020820180517bffffffffffffffffffffffffffffffffffffffffffffffffffffffff83818316178352505050506100fd60201b60201c565b50565b60008151905060006a636f6e736f6c652e6c6f679050602083016000808483855afa5050505050565b600061013182610181565b61013b818561018c565b935061014b81856020860161019d565b610154816101d0565b840191505092915050565b600060208201905081810360008301526101798184610126565b905092915050565b600081519050919050565b600082825260208201905092915050565b60005b838110156101bb5780820151818401526020810190506101a0565b838111156101ca576000848401525b50505050565b6000601f19601f8301169050919050565b6107e9806101f06000396000f3fe60806040526004361061003f5760003560e01c806331cd1602146100445780636fe15b44146100815780639a2cdc081461008b578063f3f2d91b146100b6575b600080fd5b34801561005057600080fd5b5061006b60048036038101906100669190610521565b6100e1565b604051610078919061064c565b60405180910390f35b61008961016f565b005b34801561009757600080fd5b506100a0610255565b6040516100ad919061064c565b60405180910390f35b3480156100c257600080fd5b506100cb6102a0565b6040516100d8919061064c565b60405180910390f35b600080600160008473ffffffffffffffffffffffffffffffffffffffff1673ffffffffffffffffffffffffffffffffffffffff1681526020019081526020016000205490506101666040518060400160405280601881526020017f2573206861732077617665642025642074696d6528732921000000000000000081525084836103a8565b80915050919050565b600080815480929190610181906106f2565b9190505550600160003373ffffffffffffffffffffffffffffffffffffffff1673ffffffffffffffffffffffffffffffffffffffff16815260200190815260200160002060008154809291906101d6906106f2565b919050555061021b6040518060400160405280601b81526020017f25732068617320776176656420616e642074697070656420256421000000000081525033346103a8565b347ff8b88ad29aa9f05faf80460065a17de497486e9a8c47b4b1a2f74871f919d5683360405161024b91906105a1565b60405180910390a2565b60006102986040518060400160405280601781526020017f5765206861766520256420746f74616c20776176657321000000000000000000815250600054610447565b600054905090565b600080600160003373ffffffffffffffffffffffffffffffffffffffff1673ffffffffffffffffffffffffffffffffffffffff1681526020019081526020016000205490506103086040518060600160405280602181526020016107936021913933836103a8565b8091505090565b6103a58160405160240161032391906105bc565b6040516020818303038152906040527f41304fac000000000000000000000000000000000000000000000000000000007bffffffffffffffffffffffffffffffffffffffffffffffffffffffff19166020820180517bffffffffffffffffffffffffffffffffffffffffffffffffffffffff83818316178352505050506104e3565b50565b6104428383836040516024016103c0939291906105de565b6040516020818303038152906040527f07c81217000000000000000000000000000000000000000000000000000000007bffffffffffffffffffffffffffffffffffffffffffffffffffffffff19166020820180517bffffffffffffffffffffffffffffffffffffffffffffffffffffffff83818316178352505050506104e3565b505050565b6104df828260405160240161045d92919061061c565b6040516020818303038152906040527f9710a9d0000000000000000000000000000000000000000000000000000000007bffffffffffffffffffffffffffffffffffffffffffffffffffffffff19166020820180517bffffffffffffffffffffffffffffffffffffffffffffffffffffffff83818316178352505050506104e3565b5050565b60008151905060006a636f6e736f6c652e6c6f679050602083016000808483855afa5050505050565b60008135905061051b8161077b565b92915050565b60006020828403121561053357600080fd5b60006105418482850161050c565b91505092915050565b61055381610683565b82525050565b600061056482610667565b61056e8185610672565b935061057e8185602086016106bf565b6105878161076a565b840191505092915050565b61059b816106b5565b82525050565b60006020820190506105b6600083018461054a565b92915050565b600060208201905081810360008301526105d68184610559565b905092915050565b600060608201905081810360008301526105f88186610559565b9050610607602083018561054a565b6106146040830184610592565b949350505050565b600060408201905081810360008301526106368185610559565b90506106456020830184610592565b9392505050565b60006020820190506106616000830184610592565b92915050565b600081519050919050565b600082825260208201905092915050565b600061068e82610695565b9050919050565b600073ffffffffffffffffffffffffffffffffffffffff82169050919050565b6000819050919050565b60005b838110156106dd5780820151818401526020810190506106c2565b838111156106ec576000848401525b50505050565b60006106fd826106b5565b91507fffffffffffffffffffffffffffffffffffffffffffffffffffffffffffffffff8214156107305761072f61073b565b5b600182019050919050565b7f4e487b7100000000000000000000000000000000000000000000000000000000600052601160045260246000fd5b6000601f19601f8301169050919050565b61078481610683565b811461078f57600080fd5b5056fe2573202873656e64657229206861732077617665642025642074696d6528732921a26469706673582212206a871a4d49ffa9b58492b0a50ffe11b7fedb968ff60d1d3a4eef2e3f3711737764736f6c63430008040033",
  "linkReferences": {},
  "deployedLinkReferences": {}
}