{
  "_format": "hh-sol-artifact-1",
  "contractName": "WavePortal",
  "sourceName": "contracts/WavePortal.sol",
  "abi": [
    {
      "inputs": [],
      "stateMutability": "nonpayable",
      "type": "constructor"
    },
    {
      "anonymous": false,
      "inputs": [
        {
          "indexed": true,
          "internalType": "address",
          "name": "previousOwner",
          "type": "address"
        },
        {
          "indexed": true,
          "internalType": "address",
          "name": "newOwner",
          "type": "address"
        }
      ],
      "name": "OwnershipTransferred",
      "type": "event"
    },
    {
      "anonymous": false,
      "inputs": [
        {
          "indexed": true,
          "internalType": "address",
          "name": "from",
          "type": "address"
        },
        {
          "indexed": false,
          "internalType": "uint256",
          "name": "timestamp",
          "type": "uint256"
        },
        {
          "indexed": false,
          "internalType": "string",
          "name": "nickname",
          "type": "string"
        },
        {
          "indexed": false,
          "internalType": "string",
          "name": "message",
          "type": "string"
        },
        {
          "indexed": true,
          "internalType": "uint256",
          "name": "tip",
          "type": "uint256"
        }
      ],
      "name": "Waved",
      "type": "event"
    },
    {
      "inputs": [],
      "name": "collectTips",
      "outputs": [],
      "stateMutability": "nonpayable",
      "type": "function"
    },
    {
      "inputs": [],
      "name": "getAllWaves",
      "outputs": [
        {
          "components": [
            {
              "internalType": "address",
              "name": "from",
              "type": "address"
            },
            {
              "internalType": "uint256",
              "name": "timestamp",
              "type": "uint256"
            },
            {
              "internalType": "string",
              "name": "nickname",
              "type": "string"
            },
            {
              "internalType": "string",
              "name": "message",
              "type": "string"
            },
            {
              "internalType": "uint256",
              "name": "tip",
              "type": "uint256"
            }
          ],
          "internalType": "struct WavePortal.Wave[]",
          "name": "",
          "type": "tuple[]"
        }
      ],
      "stateMutability": "view",
      "type": "function"
    },
    {
      "inputs": [],
      "name": "getMyWaves",
      "outputs": [
        {
          "components": [
            {
              "internalType": "address",
              "name": "from",
              "type": "address"
            },
            {
              "internalType": "uint256",
              "name": "timestamp",
              "type": "uint256"
            },
            {
              "internalType": "string",
              "name": "nickname",
              "type": "string"
            },
            {
              "internalType": "string",
              "name": "message",
              "type": "string"
            },
            {
              "internalType": "uint256",
              "name": "tip",
              "type": "uint256"
            }
          ],
          "internalType": "struct WavePortal.Wave[]",
          "name": "",
          "type": "tuple[]"
        }
      ],
      "stateMutability": "view",
      "type": "function"
    },
    {
      "inputs": [],
      "name": "getTotalWaves",
      "outputs": [
        {
          "internalType": "uint256",
          "name": "",
          "type": "uint256"
        }
      ],
      "stateMutability": "view",
      "type": "function"
    },
    {
      "inputs": [
        {
          "internalType": "address",
          "name": "_address",
          "type": "address"
        }
      ],
      "name": "getWavesOf",
      "outputs": [
        {
          "components": [
            {
              "internalType": "address",
              "name": "from",
              "type": "address"
            },
            {
              "internalType": "uint256",
              "name": "timestamp",
              "type": "uint256"
            },
            {
              "internalType": "string",
              "name": "nickname",
              "type": "string"
            },
            {
              "internalType": "string",
              "name": "message",
              "type": "string"
            },
            {
              "internalType": "uint256",
              "name": "tip",
              "type": "uint256"
            }
          ],
          "internalType": "struct WavePortal.Wave[]",
          "name": "",
          "type": "tuple[]"
        }
      ],
      "stateMutability": "view",
      "type": "function"
    },
    {
      "inputs": [],
      "name": "owner",
      "outputs": [
        {
          "internalType": "address",
          "name": "",
          "type": "address"
        }
      ],
      "stateMutability": "view",
      "type": "function"
    },
    {
      "inputs": [],
      "name": "renounceOwnership",
      "outputs": [],
      "stateMutability": "nonpayable",
      "type": "function"
    },
    {
      "inputs": [
        {
          "internalType": "address",
          "name": "newOwner",
          "type": "address"
        }
      ],
      "name": "transferOwnership",
      "outputs": [],
      "stateMutability": "nonpayable",
      "type": "function"
    },
    {
      "inputs": [
        {
          "internalType": "string",
          "name": "_nickname",
          "type": "string"
        },
        {
          "internalType": "string",
          "name": "_message",
          "type": "string"
        }
      ],
      "name": "wave",
      "outputs": [],
      "stateMutability": "payable",
      "type": "function"
    }
  ],
  "bytecode": "0x60806040523480156200001157600080fd5b5062000032620000266200008360201b60201c565b6200008b60201b60201c565b6200007d6040518060400160405280601681526020017f57617665506f7274616c20636f6e7374727563746f72000000000000000000008152506200014f60201b62000edb1760201c565b620002e3565b600033905090565b60008060009054906101000a900473ffffffffffffffffffffffffffffffffffffffff169050816000806101000a81548173ffffffffffffffffffffffffffffffffffffffff021916908373ffffffffffffffffffffffffffffffffffffffff1602179055508173ffffffffffffffffffffffffffffffffffffffff168173ffffffffffffffffffffffffffffffffffffffff167f8be0079c531659141344cd1fd0a4f28419497f9722a3daafe3b4186f6b6457e060405160405180910390a35050565b620001ef816040516024016200016691906200025c565b6040516020818303038152906040527f41304fac000000000000000000000000000000000000000000000000000000007bffffffffffffffffffffffffffffffffffffffffffffffffffffffff19166020820180517bffffffffffffffffffffffffffffffffffffffffffffffffffffffff8381831617835250505050620001f260201b60201c565b50565b60008151905060006a636f6e736f6c652e6c6f679050602083016000808483855afa5050505050565b6000620002288262000280565b6200023481856200028b565b9350620002468185602086016200029c565b6200025181620002d2565b840191505092915050565b600060208201905081810360008301526200027881846200021b565b905092915050565b600081519050919050565b600082825260208201905092915050565b60005b83811015620002bc5780820151818401526020810190506200029f565b83811115620002cc576000848401525b50505050565b6000601f19601f8301169050919050565b611d7980620002f36000396000f3fe6080604052600436106100865760003560e01c80638da5cb5b116100595780638da5cb5b146101125780639a2cdc081461013d578063bd43a90814610168578063f2fde38b14610193578063f3f2d91b146101bc57610086565b806331cd16021461008b57806351872959146100c85780636d9342fd146100e4578063715018a6146100fb575b600080fd5b34801561009757600080fd5b506100b260048036038101906100ad91906113df565b6101e7565b6040516100bf91906117e4565b60405180910390f35b6100e260048036038101906100dd9190611408565b6105c8565b005b3480156100f057600080fd5b506100f9610a36565b005b34801561010757600080fd5b50610110610ae4565b005b34801561011e57600080fd5b50610127610b6c565b60405161013491906117c9565b60405180910390f35b34801561014957600080fd5b50610152610b95565b60405161015f9190611976565b60405180910390f35b34801561017457600080fd5b5061017d610be6565b60405161018a91906117e4565b60405180910390f35b34801561019f57600080fd5b506101ba60048036038101906101b591906113df565b610dd3565b005b3480156101c857600080fd5b506101d1610ecb565b6040516101de91906117e4565b60405180910390f35b60606000600260003373ffffffffffffffffffffffffffffffffffffffff1673ffffffffffffffffffffffffffffffffffffffff168152602001908152602001600020905060008180549050905060008111610278576040517f08c379a000000000000000000000000000000000000000000000000000000000815260040161026f90611916565b60405180910390fd5b60008167ffffffffffffffff8111156102ba577f4e487b7100000000000000000000000000000000000000000000000000000000600052604160045260246000fd5b6040519080825280602002602001820160405280156102f357816020015b6102e0611298565b8152602001906001900390816102d85790505b50905060005b8281101561057c57600184828154811061033c577f4e487b7100000000000000000000000000000000000000000000000000000000600052603260045260246000fd5b90600052602060002001548154811061037e577f4e487b7100000000000000000000000000000000000000000000000000000000600052603260045260246000fd5b90600052602060002090600502016040518060a00160405290816000820160009054906101000a900473ffffffffffffffffffffffffffffffffffffffff1673ffffffffffffffffffffffffffffffffffffffff1673ffffffffffffffffffffffffffffffffffffffff1681526020016001820154815260200160028201805461040790611ad4565b80601f016020809104026020016040519081016040528092919081815260200182805461043390611ad4565b80156104805780601f1061045557610100808354040283529160200191610480565b820191906000526020600020905b81548152906001019060200180831161046357829003601f168201915b5050505050815260200160038201805461049990611ad4565b80601f01602080910402602001604051908101604052809291908181526020018280546104c590611ad4565b80156105125780601f106104e757610100808354040283529160200191610512565b820191906000526020600020905b8154815290600101906020018083116104f557829003601f168201915b5050505050815260200160048201548152505082828151811061055e577f4e487b7100000000000000000000000000000000000000000000000000000000600052603260045260246000fd5b6020026020010181905250808061057490611b06565b9150506102f9565b506105bd6040518060400160405280601881526020017f2573206861732077617665642025642074696d652873292100000000000000008152508684610f74565b809350505050919050565b83836032828290501115610611576040517f08c379a000000000000000000000000000000000000000000000000000000000815260040161060890611956565b60405180910390fd5b6000828260405160200161062692919061179b565b60405160208183030381529060405280519060200120905060006003600083815260200190815260200160002060009054906101000a900473ffffffffffffffffffffffffffffffffffffffff169050600073ffffffffffffffffffffffffffffffffffffffff168173ffffffffffffffffffffffffffffffffffffffff1614806106dc57503373ffffffffffffffffffffffffffffffffffffffff168173ffffffffffffffffffffffffffffffffffffffff16145b61071b576040517f08c379a0000000000000000000000000000000000000000000000000000000008152600401610712906118d6565b60405180910390fd5b600073ffffffffffffffffffffffffffffffffffffffff168173ffffffffffffffffffffffffffffffffffffffff1614156107a357336003600084815260200190815260200160002060006101000a81548173ffffffffffffffffffffffffffffffffffffffff021916908373ffffffffffffffffffffffffffffffffffffffff1602179055505b600260003373ffffffffffffffffffffffffffffffffffffffff1673ffffffffffffffffffffffffffffffffffffffff168152602001908152602001600020600180549050908060018154018082558091505060019003906000526020600020016000909190919091505560016040518060a001604052803373ffffffffffffffffffffffffffffffffffffffff1681526020014281526020018a8a8080601f016020809104026020016040519081016040528093929190818152602001838380828437600081840152601f19601f82011690508083019250505050505050815260200188888080601f016020809104026020016040519081016040528093929190818152602001838380828437600081840152601f19601f82011690508083019250505050505050815260200134815250908060018154018082558091505060019003906000526020600020906005020160009091909190915060008201518160000160006101000a81548173ffffffffffffffffffffffffffffffffffffffff021916908373ffffffffffffffffffffffffffffffffffffffff16021790555060208201518160010155604082015181600201908051906020019061096b9291906112dd565b5060608201518160030190805190602001906109889291906112dd565b506080820151816004015550506109d56040518060400160405280601b81526020017f25732068617320776176656420616e64207469707065642025642100000000008152503334610f74565b343373ffffffffffffffffffffffffffffffffffffffff167fe3c95c03c7e26fc15494c83dafdd0f21c35b8b96eec0751ed435994a9daae20a428b8b8b8b604051610a24959493929190611991565b60405180910390a35050505050505050565b610a3e611013565b73ffffffffffffffffffffffffffffffffffffffff16610a5c610b6c565b73ffffffffffffffffffffffffffffffffffffffff1614610ab2576040517f08c379a0000000000000000000000000000000000000000000000000000000008152600401610aa990611936565b60405180910390fd5b610ae247610abe610b6c565b73ffffffffffffffffffffffffffffffffffffffff1661101b90919063ffffffff16565b565b610aec611013565b73ffffffffffffffffffffffffffffffffffffffff16610b0a610b6c565b73ffffffffffffffffffffffffffffffffffffffff1614610b60576040517f08c379a0000000000000000000000000000000000000000000000000000000008152600401610b5790611936565b60405180910390fd5b610b6a600061110f565b565b60008060009054906101000a900473ffffffffffffffffffffffffffffffffffffffff16905090565b6000610bdb6040518060400160405280601781526020017f5765206861766520256420746f74616c207761766573210000000000000000008152506001805490506111d3565b600180549050905090565b60606001805480602002602001604051908101604052809291908181526020016000905b82821015610dca57838290600052602060002090600502016040518060a00160405290816000820160009054906101000a900473ffffffffffffffffffffffffffffffffffffffff1673ffffffffffffffffffffffffffffffffffffffff1673ffffffffffffffffffffffffffffffffffffffff16815260200160018201548152602001600282018054610c9d90611ad4565b80601f0160208091040260200160405190810160405280929190818152602001828054610cc990611ad4565b8015610d165780601f10610ceb57610100808354040283529160200191610d16565b820191906000526020600020905b815481529060010190602001808311610cf957829003601f168201915b50505050508152602001600382018054610d2f90611ad4565b80601f0160208091040260200160405190810160405280929190818152602001828054610d5b90611ad4565b8015610da85780601f10610d7d57610100808354040283529160200191610da8565b820191906000526020600020905b815481529060010190602001808311610d8b57829003601f168201915b5050505050815260200160048201548152505081526020019060010190610c0a565b50505050905090565b610ddb611013565b73ffffffffffffffffffffffffffffffffffffffff16610df9610b6c565b73ffffffffffffffffffffffffffffffffffffffff1614610e4f576040517f08c379a0000000000000000000000000000000000000000000000000000000008152600401610e4690611936565b60405180910390fd5b600073ffffffffffffffffffffffffffffffffffffffff168173ffffffffffffffffffffffffffffffffffffffff161415610ebf576040517f08c379a0000000000000000000000000000000000000000000000000000000008152600401610eb690611896565b60405180910390fd5b610ec88161110f565b50565b6060610ed6336101e7565b905090565b610f7181604051602401610eef9190611806565b6040516020818303038152906040527f41304fac000000000000000000000000000000000000000000000000000000007bffffffffffffffffffffffffffffffffffffffffffffffffffffffff19166020820180517bffffffffffffffffffffffffffffffffffffffffffffffffffffffff838183161783525050505061126f565b50565b61100e838383604051602401610f8c93929190611828565b6040516020818303038152906040527f07c81217000000000000000000000000000000000000000000000000000000007bffffffffffffffffffffffffffffffffffffffffffffffffffffffff19166020820180517bffffffffffffffffffffffffffffffffffffffffffffffffffffffff838183161783525050505061126f565b505050565b600033905090565b8047101561105e576040517f08c379a0000000000000000000000000000000000000000000000000000000008152600401611055906118f6565b60405180910390fd5b60008273ffffffffffffffffffffffffffffffffffffffff1682604051611084906117b4565b60006040518083038185875af1925050503d80600081146110c1576040519150601f19603f3d011682016040523d82523d6000602084013e6110c6565b606091505b505090508061110a576040517f08c379a0000000000000000000000000000000000000000000000000000000008152600401611101906118b6565b60405180910390fd5b505050565b60008060009054906101000a900473ffffffffffffffffffffffffffffffffffffffff169050816000806101000a81548173ffffffffffffffffffffffffffffffffffffffff021916908373ffffffffffffffffffffffffffffffffffffffff1602179055508173ffffffffffffffffffffffffffffffffffffffff168173ffffffffffffffffffffffffffffffffffffffff167f8be0079c531659141344cd1fd0a4f28419497f9722a3daafe3b4186f6b6457e060405160405180910390a35050565b61126b82826040516024016111e9929190611866565b6040516020818303038152906040527f9710a9d0000000000000000000000000000000000000000000000000000000007bffffffffffffffffffffffffffffffffffffffffffffffffffffffff19166020820180517bffffffffffffffffffffffffffffffffffffffffffffffffffffffff838183161783525050505061126f565b5050565b60008151905060006a636f6e736f6c652e6c6f679050602083016000808483855afa5050505050565b6040518060a00160405280600073ffffffffffffffffffffffffffffffffffffffff168152602001600081526020016060815260200160608152602001600081525090565b8280546112e990611ad4565b90600052602060002090601f01602090048101928261130b5760008555611352565b82601f1061132457805160ff1916838001178555611352565b82800160010185558215611352579182015b82811115611351578251825591602001919060010190611336565b5b50905061135f9190611363565b5090565b5b8082111561137c576000816000905550600101611364565b5090565b60008135905061138f81611d2c565b92915050565b60008083601f8401126113a757600080fd5b8235905067ffffffffffffffff8111156113c057600080fd5b6020830191508360018202830111156113d857600080fd5b9250929050565b6000602082840312156113f157600080fd5b60006113ff84828501611380565b91505092915050565b6000806000806040858703121561141e57600080fd5b600085013567ffffffffffffffff81111561143857600080fd5b61144487828801611395565b9450945050602085013567ffffffffffffffff81111561146357600080fd5b61146f87828801611395565b925092505092959194509250565b60006114898383611700565b905092915050565b61149a81611a56565b82525050565b6114a981611a56565b82525050565b60006114ba826119ea565b6114c48185611a0d565b9350836020820285016114d6856119da565b8060005b8581101561151257848403895281516114f3858261147d565b94506114fe83611a00565b925060208a019950506001810190506114da565b50829750879550505050505092915050565b60006115308385611a3a565b935061153d838584611a92565b61154683611bad565b840190509392505050565b600061155d8385611a4b565b935061156a838584611a92565b82840190509392505050565b6000611581826119f5565b61158b8185611a29565b935061159b818560208601611aa1565b6115a481611bad565b840191505092915050565b60006115ba826119f5565b6115c48185611a3a565b93506115d4818560208601611aa1565b6115dd81611bad565b840191505092915050565b60006115f5602683611a3a565b915061160082611bbe565b604082019050919050565b6000611618603a83611a3a565b915061162382611c0d565b604082019050919050565b600061163b601983611a3a565b915061164682611c5c565b602082019050919050565b600061165e601d83611a3a565b915061166982611c85565b602082019050919050565b6000611681601883611a3a565b915061168c82611cae565b602082019050919050565b60006116a4602083611a3a565b91506116af82611cd7565b602082019050919050565b60006116c7600083611a1e565b91506116d282611d00565b600082019050919050565b60006116ea601483611a3a565b91506116f582611d03565b602082019050919050565b600060a0830160008301516117186000860182611491565b50602083015161172b602086018261177d565b50604083015184820360408601526117438282611576565b9150506060830151848203606086015261175d8282611576565b9150506080830151611772608086018261177d565b508091505092915050565b61178681611a88565b82525050565b61179581611a88565b82525050565b60006117a8828486611551565b91508190509392505050565b60006117bf826116ba565b9150819050919050565b60006020820190506117de60008301846114a0565b92915050565b600060208201905081810360008301526117fe81846114af565b905092915050565b6000602082019050818103600083015261182081846115af565b905092915050565b6000606082019050818103600083015261184281866115af565b905061185160208301856114a0565b61185e604083018461178c565b949350505050565b6000604082019050818103600083015261188081856115af565b905061188f602083018461178c565b9392505050565b600060208201905081810360008301526118af816115e8565b9050919050565b600060208201905081810360008301526118cf8161160b565b9050919050565b600060208201905081810360008301526118ef8161162e565b9050919050565b6000602082019050818103600083015261190f81611651565b9050919050565b6000602082019050818103600083015261192f81611674565b9050919050565b6000602082019050818103600083015261194f81611697565b9050919050565b6000602082019050818103600083015261196f816116dd565b9050919050565b600060208201905061198b600083018461178c565b92915050565b60006060820190506119a6600083018861178c565b81810360208301526119b9818688611524565b905081810360408301526119ce818486611524565b90509695505050505050565b6000819050602082019050919050565b600081519050919050565b600081519050919050565b6000602082019050919050565b600082825260208201905092915050565b600081905092915050565b600082825260208201905092915050565b600082825260208201905092915050565b600081905092915050565b6000611a6182611a68565b9050919050565b600073ffffffffffffffffffffffffffffffffffffffff82169050919050565b6000819050919050565b82818337600083830152505050565b60005b83811015611abf578082015181840152602081019050611aa4565b83811115611ace576000848401525b50505050565b60006002820490506001821680611aec57607f821691505b60208210811415611b0057611aff611b7e565b5b50919050565b6000611b1182611a88565b91507fffffffffffffffffffffffffffffffffffffffffffffffffffffffffffffffff821415611b4457611b43611b4f565b5b600182019050919050565b7f4e487b7100000000000000000000000000000000000000000000000000000000600052601160045260246000fd5b7f4e487b7100000000000000000000000000000000000000000000000000000000600052602260045260246000fd5b6000601f19601f8301169050919050565b7f4f776e61626c653a206e6577206f776e657220697320746865207a65726f206160008201527f6464726573730000000000000000000000000000000000000000000000000000602082015250565b7f416464726573733a20756e61626c6520746f2073656e642076616c75652c207260008201527f6563697069656e74206d61792068617665207265766572746564000000000000602082015250565b7f4e69636b6e616d6520697320616c72656164792074616b656e00000000000000600082015250565b7f416464726573733a20696e73756666696369656e742062616c616e6365000000600082015250565b7f4164647265737320646964206e6f742077617665207965740000000000000000600082015250565b7f4f776e61626c653a2063616c6c6572206973206e6f7420746865206f776e6572600082015250565b50565b7f4e69636b6e616d6520697320746f6f206c6f6e67000000000000000000000000600082015250565b611d3581611a56565b8114611d4057600080fd5b5056fea2646970667358221220ec53dc530c3ee1e9c8f64565f53899f3781816f9eef79298ec7c02c6c1ad63b364736f6c63430008040033",
  "linkReferences": {},
  "deployedLinkReferences": {}
}